{
  "contractName": "CrowdFunding",
  "abi": [
    {
      "inputs": [
        {
          "internalType": "address payable",
          "name": "beneficiary",
          "type": "address"
        },
        {
          "internalType": "uint256",
          "name": "goal",
          "type": "uint256"
        }
      ],
      "name": "newCampaign",
      "outputs": [
        {
          "internalType": "uint256",
          "name": "campaignID",
          "type": "uint256"
        }
      ],
      "stateMutability": "nonpayable",
      "type": "function"
    },
    {
      "inputs": [
        {
          "internalType": "uint256",
          "name": "campaignID",
          "type": "uint256"
        }
      ],
      "name": "contribute",
      "outputs": [],
      "stateMutability": "payable",
      "type": "function"
    },
    {
      "inputs": [
        {
          "internalType": "uint256",
          "name": "campaignID",
          "type": "uint256"
        }
      ],
      "name": "checkGoalReached",
      "outputs": [
        {
          "internalType": "bool",
          "name": "reached",
          "type": "bool"
        }
      ],
      "stateMutability": "nonpayable",
      "type": "function"
    }
  ],
  "bytecode": "0x608060405234801561001057600080fd5b5061036c806100206000396000f3fe6080604052600436106100345760003560e01c80635b2329d414610039578063c1cbbca71461008c578063f7572cf3146100ba575b600080fd5b34801561004557600080fd5b506100726004803603602081101561005c57600080fd5b8101908080359060200190929190505050610129565b604051808215151515815260200191505060405180910390f35b6100b8600480360360208110156100a257600080fd5b81019080803590602001909291905050506101e5565b005b3480156100c657600080fd5b50610113600480360360408110156100dd57600080fd5b81019080803573ffffffffffffffffffffffffffffffffffffffff169060200190929190803590602001909291905050506102b8565b6040518082815260200191505060405180910390f35b60008060016000848152602001908152602001600020905080600101548160030154101561015b5760009150506101e0565b600081600301549050600082600301819055508160000160009054906101000a900473ffffffffffffffffffffffffffffffffffffffff1673ffffffffffffffffffffffffffffffffffffffff166108fc829081150290604051600060405180830381858888f193505050501580156101d8573d6000803e3d6000fd5b506001925050505b919050565b600060016000838152602001908152602001600020905060405180604001604052803373ffffffffffffffffffffffffffffffffffffffff1681526020013481525081600401600083600201600081548092919060010191905055815260200190815260200160002060008201518160000160006101000a81548173ffffffffffffffffffffffffffffffffffffffff021916908373ffffffffffffffffffffffffffffffffffffffff160217905550602082015181600101559050503481600301600082825401925050819055505050565b60008060008154809291906001019190505590506000600160008381526020019081526020016000209050838160000160006101000a81548173ffffffffffffffffffffffffffffffffffffffff021916908373ffffffffffffffffffffffffffffffffffffffff160217905550828160010181905550509291505056fea264697066735822122035b1be1e8c1428f2d7d5a602eded7af1e552dd52b869b719b44165076c8ddf5764736f6c63430006010033",
  "source": "// SPDX-License-Identifier: GPL-3.0\npragma solidity >=0.6.0 <0.9.0;\n\n// Defines a new type with two fields.\n// Declaring a struct outside of a contract allows\n// it to be shared by multiple contracts.\n// Here, this is not really needed.\nstruct Funder {\n    address addr;\n    uint amount;\n}\n\ncontract CrowdFunding {\n    // Structs can also be defined inside contracts, which makes them\n    // visible only there and in derived contracts.\n    struct Campaign {\n        address payable beneficiary;\n        uint fundingGoal;\n        uint numFunders;\n        uint amount;\n        mapping (uint => Funder) funders;\n    }\n\n    uint numCampaigns;\n    mapping (uint => Campaign) campaigns;\n\n    function newCampaign(address payable beneficiary, uint goal) public returns (uint campaignID) {\n        campaignID = numCampaigns++; // campaignID is return variable\n        // We cannot use \"campaigns[campaignID] = Campaign(beneficiary, goal, 0, 0)\"\n        // because the RHS creates a memory-struct \"Campaign\" that contains a mapping.\n        Campaign storage c = campaigns[campaignID];\n        c.beneficiary = beneficiary;\n        c.fundingGoal = goal;\n    }\n\n    function contribute(uint campaignID) public payable {\n        Campaign storage c = campaigns[campaignID];\n        // Creates a new temporary memory struct, initialised with the given values\n        // and copies it over to storage.\n        // Note that you can also use Funder(msg.sender, msg.value) to initialise.\n        c.funders[c.numFunders++] = Funder({addr: msg.sender, amount: msg.value});\n        c.amount += msg.value;\n    }\n\n    function checkGoalReached(uint campaignID) public returns (bool reached) {\n        Campaign storage c = campaigns[campaignID];\n        if (c.amount < c.fundingGoal)\n            return false;\n        uint amount = c.amount;\n        c.amount = 0;\n        c.beneficiary.transfer(amount);\n        return true;\n    }\n}",
  "sourcePath": "/home/spider/Desktop/ngo_folder/contracts/ngo1.sol",
  "compiler": {
    "name": "solc",
    "version": "0.6.1+commit.e6f7d5a4.Emscripten.clang"
  },
  "schemaVersion": "3.3.4",
  "updatedAt": "2021-04-23T14:56:08.379Z",
  "devdoc": {
    "methods": {}
  },
  "userdoc": {
    "methods": {}
  }
}